:100000000EC015C014C013C012C011C010C00FC064
:100010000EC00DC00CC00BC00AC009C008C011241E
:100020001FBECFE5D2E0DEBFCDBF02D02CC0E8CFEF
:1000300082E087BB88BB2FE132E19AE0215030405B
:100040009040E1F700C0000018BA2FE132E19AE0D9
:10005000215030409040E1F700C0000088BB2FE302
:1000600035EB94E6215030409040E1F700C00000AD
:1000700018BA2FE335EB94E6215030409040E1F779
:0A00800000C00000D7CFF894FFCFB6
:00000001FF
